{"abi":[{"type":"constructor","inputs":[],"stateMutability":"nonpayable"},{"type":"function","name":"buyItem","inputs":[{"name":"token","type":"address","internalType":"address"},{"name":"amount","type":"uint256","internalType":"uint256"}],"outputs":[{"name":"","type":"bool","internalType":"bool"}],"stateMutability":"nonpayable"},{"type":"function","name":"itemSeller","inputs":[{"name":"","type":"uint256","internalType":"uint256"}],"outputs":[{"name":"","type":"address","internalType":"address"}],"stateMutability":"view"},{"type":"function","name":"owner","inputs":[],"outputs":[{"name":"","type":"address","internalType":"address"}],"stateMutability":"view"},{"type":"function","name":"prices","inputs":[{"name":"","type":"address","internalType":"address"}],"outputs":[{"name":"","type":"uint256","internalType":"uint256"}],"stateMutability":"view"},{"type":"function","name":"setPrice","inputs":[{"name":"token","type":"address","internalType":"address"},{"name":"price","type":"uint256","internalType":"uint256"}],"outputs":[],"stateMutability":"nonpayable"},{"type":"event","name":"ItemPurchased","inputs":[{"name":"itemId","type":"uint256","indexed":true,"internalType":"uint256"},{"name":"buyer","type":"address","indexed":false,"internalType":"address"},{"name":"price","type":"uint256","indexed":false,"internalType":"uint256"}],"anonymous":false},{"type":"event","name":"PriceSet","inputs":[{"name":"token","type":"address","indexed":true,"internalType":"address"},{"name":"price","type":"uint256","indexed":false,"internalType":"uint256"}],"anonymous":false}],"bytecode":{"object":"0x6080604052348015600f57600080fd5b50336000806101000a81548173ffffffffffffffffffffffffffffffffffffffff021916908373ffffffffffffffffffffffffffffffffffffffff1602179055506106588061005f6000396000f3fe608060405234801561001057600080fd5b50600436106100565760003560e01c8062e4768b1461005b5780638da5cb5b146100775780639f37092a14610095578063a70d6f8a146100c5578063cfed246b146100f5575b600080fd5b610075600480360381019061007091906103f1565b610125565b005b61007f6101bb565b60405161008c9190610440565b60405180910390f35b6100af60048036038101906100aa91906103f1565b6101df565b6040516100bc9190610476565b60405180910390f35b6100df60048036038101906100da9190610491565b61030d565b6040516100ec9190610440565b60405180910390f35b61010f600480360381019061010a91906104be565b610340565b60405161011c91906104fa565b60405180910390f35b80600160008473ffffffffffffffffffffffffffffffffffffffff1673ffffffffffffffffffffffffffffffffffffffff168152602001908152602001600020819055508173ffffffffffffffffffffffffffffffffffffffff167ff9a09e2869a1f88523f00504328d7965866201bafe501573db2e114e3375a086826040516101af91906104fa565b60405180910390a25050565b60008054906101000a900473ffffffffffffffffffffffffffffffffffffffff1681565b600080600160008573ffffffffffffffffffffffffffffffffffffffff1673ffffffffffffffffffffffffffffffffffffffff1681526020019081526020016000205411610262576040517f08c379a000000000000000000000000000000000000000000000000000000000815260040161025990610572565b60405180910390fd5b8273ffffffffffffffffffffffffffffffffffffffff166323b872dd3360008054906101000a900473ffffffffffffffffffffffffffffffffffffffff16856040518463ffffffff1660e01b81526004016102bf93929190610592565b6020604051808303816000875af11580156102de573d6000803e3d6000fd5b505050506040513d601f19601f8201168201806040525081019061030291906105f5565b506001905092915050565b60026020528060005260406000206000915054906101000a900473ffffffffffffffffffffffffffffffffffffffff1681565b60016020528060005260406000206000915090505481565b600080fd5b600073ffffffffffffffffffffffffffffffffffffffff82169050919050565b60006103888261035d565b9050919050565b6103988161037d565b81146103a357600080fd5b50565b6000813590506103b58161038f565b92915050565b6000819050919050565b6103ce816103bb565b81146103d957600080fd5b50565b6000813590506103eb816103c5565b92915050565b6000806040838503121561040857610407610358565b5b6000610416858286016103a6565b9250506020610427858286016103dc565b9150509250929050565b61043a8161037d565b82525050565b60006020820190506104556000830184610431565b92915050565b60008115159050919050565b6104708161045b565b82525050565b600060208201905061048b6000830184610467565b92915050565b6000602082840312156104a7576104a6610358565b5b60006104b5848285016103dc565b91505092915050565b6000602082840312156104d4576104d3610358565b5b60006104e2848285016103a6565b91505092915050565b6104f4816103bb565b82525050565b600060208201905061050f60008301846104eb565b92915050565b600082825260208201905092915050565b7f746f6b656e206e6f7420737570706f7274656400000000000000000000000000600082015250565b600061055c601383610515565b915061056782610526565b602082019050919050565b6000602082019050818103600083015261058b8161054f565b9050919050565b60006060820190506105a76000830186610431565b6105b46020830185610431565b6105c160408301846104eb565b949350505050565b6105d28161045b565b81146105dd57600080fd5b50565b6000815190506105ef816105c9565b92915050565b60006020828403121561060b5761060a610358565b5b6000610619848285016105e0565b9150509291505056fea26469706673582212203a772327861cd2b1a6183be5d236c8582bd6da9b8cbcab7282a838fa73035af664736f6c634300081a0033","linkReferences":{}},"methodIdentifiers":{"buyItem(address,uint256)":"9f37092a","itemSeller(uint256)":"a70d6f8a","owner()":"8da5cb5b","prices(address)":"cfed246b","setPrice(address,uint256)":"00e4768b"},"id":22}